:100000000C9484030C94CB030C94CB030C94CB037F
:100010000C94CB030C94CB030C94CB030C94CB0328
:100020000C94CB030C94CB030C94D1210C948D2114
:100030000C94AB280C94CB030C94CB030C94CB0303
:100040000C94CB030C94CB030C94CB030C94CB03F8
:100050000C94CB030C9487280C94CB030C94CB0307
:100060000C94CB030C94CB030C94CB030C94CB03D8
:100070000C94CB030C94CB030C94CB030C94CB03C8
:100080000C94CB030C94CB030C94CB030C94CB03B8
:100090000C94CB030C94CB030C94CB030C94CB03A8
:1000A0000C94CB030C94CB030C94CB0305010902F5
:1000B000A10185020901A100050919012905150001
:1000C00025019505750181029501750381010501E1
:1000D000093009311581257F950275088106093897
:1000E0001581257F950175088106050C0A380215D2
:1000F00081257F950175088106C0C005010980A191
:1001000001850319012AB700150126B7009501756D
:10011000108100C0050C0901A101850419012AA064
:1001200002150126A002950175108100C005010984
:1001300006A1018505050719E029E71500250195A8
:1001400008750181020507190029EF1500250195A1
:10015000F0750181020508190129059505750191C0
:1001600002950175039101C00660FF0961A10109B3
:1001700062150026FF0095207508810209631500AD
:1001800026FF00952075089102C005010906A1010E
:10019000050719E029E71500250195087501810279
:1001A0009501750881010507190029FF150026FF33
:1001B0000095067508810005081901290595057542
:1001C000019102950175039101C00000000000003B
:1001D000000000000000000000000000000000001F
:1001E00000000000000000000000000000007E0F82
:1001F00000D4FFFFFFC700000078000000000000EF
:1002000000002A2B28000000000000000000000071
:10021000000000000029000000002C1E34202122D4
:1002200024342627252E362D3738271E1F2021223D
:10023000232425263333362E37381F0405060708B6
:10024000090A0B0C0D0E0F101112131415161718A6
:10025000191A1B1C1D2F3130232D350405060708E4
:10026000090A0B0C0D0E0F10111213141516171886
:10027000191A1B1C1D2F3130354C000101010101E1
:10028000010101010202020202020202020303034F
:10029000030303030304040404040404050505051F
:1002A00005060606060607070707070808080809DF
:1002B0000909090A0A0A0B0B0B0C0C0C0D0D0D0E8B
:1002C0000E0E0F0F0F101011111112121313141420
:1002D000151516161717181819191A1A1B1B1C1D95
:1002E0001D1E1E1F202021222223242425262627EE
:1002F0002829292A2B2C2D2D2E2F30313232333420
:1003000035363738393A3B3C3D3E3F404142434425
:1003100045464748494A4C4D4E4F50515354555607
:1003200058595A5B5D5E5F616264656668696B6CB3
:100330006D6F7072737577787A7B7D7E808283852E
:1003400087888A8C8E8F91939596989A9C9EA0A26E
:10035000A3A5A7A9ABADAFB1B3B5B7BABCBEC0C278
:10036000C4C6C9CBCDCFD1D4D6D8DBDDDFE2E4E73C
:10037000E9EBEEF0F3F5F8FAFDFFFFAA7F55402216
:1003800023252628292A2C2D2F3032333536383A8A
:100390003B3D3E4042434547494A4C4E50515355E0
:1003A00057595A5C5E6062646668696B6D6F717301
:1003B0007577797B7D7F81838587898A8C8E909202
:1003C0009496989A9C9E9FA1A3A5A7A8AAACAEAF0D
:1003D000B1B3B4B6B8B9BBBCBEBFC1C2C3C5C6C752
:1003E000C9CACBCCCDCED0D1D2D2D3D4D5D6D7D703
:1003F000D8D9D9DADADBDBDBDCDCDCDCDCDDDDDD4B
:10040000DDDCDCDCDCDCDBDBDBDADAD9D9D8D7D746
:10041000D6D5D4D3D2D2D1D0CECDCCCBCAC9C7C6F3
:10042000C5C3C2C1BFBEBCBBB9B8B6B4B3B1AFAE31
:10043000ACAAA8A7A5A3A19F9E9C9A9896949290D7
:100440008E8C8A89878583817F7D7B7977757371AF
:100450006F6D6B6968666462605E5C5A595755538C
:1004600051504E4C4A4947454342403E3D3B3A3845
:1004700036353332302F2D2C2A2928262523222BBE
:100480000014001A000800150017001C0018000CCA
:1004900000120013002A00290004001600070009BA
:1004A000000A000B000D000E000F0033003400E1C5
:1004B000001D001B00060019000500110010003689
:1004C000003700380028003900E000E200E3004C6B
:1004D000002C002C00C35C5200500051004F000063
:1004E0005C010001000100010001000100010001A8
:1004F00000010001000100010001000100010001F4
:1005000000010001000100010001000100010001E3
:1005100000010001000100010001000100010001D3
:1005200000010001000100010001000100010001C3
:1005300000010001000100010001000100010001B3
:1005400000010001000100010001000100010001A3
:100550000001000100010001000100010001000193
:100560000001000100010001000100010001000183
:100570000001000100010001000100010001000173
:100580000001000100010001000100010001000163
:100590000001000100010001000100010001000153
:1005A0000001000100010001000100010001000143
:1005B0000001000100010001000100010001000133
:1005C0000001000100010001000100010001000123
:1005D0000001000100010001000100010001000113
:1005E0000001000100010001000100010001000103
:1005F00000010001000100010001000100010001F3
:1006000000010001000100010001000100010001E2
:1006100000010001000100010001000100010001D2
:1006200000010001000100010001000100010001C2
:1006300000010001000100010001000100010001B2
:1006400000010001000100010001000100010001A2
:100650000001000100010001000100010001001E75
:100660000F0500047F3F1F643214643214783C1E6F
:100670001E140A0509025B00030100A0FA09040028
:1006800000010301010009211101000122400007BE
:1006900005810308000A09040100020300000009A3
:1006A0002111010001222200070582032000010719
:1006B00005030320000109040200010300000009F2
:1006C000211101000122BC000705840320000A1249
:1006D00001100100000008544D0320010001020335
:1006E00001040330000000120359006D006400345F
:1006F000003000200056003200000006034D005478
:10070000000000040309040011241FBECFEFDAE04B
:10071000DEBFCDBF04B603FE27C08091D902909101
:10072000DA02A091DB02B091DC028730904BA74047
:10073000B04BD1F41092D9021092DA021092DB027F
:100740001092DC0214BE84B7877F84BF0FB6F89482
:10075000A89580916000886180936000109260008D
:100760000FBEE0E0F8E3099522E0A8E9B1E001C09E
:100770001D92A93DB207E1F711E0A0E0B1E0E6E289
:10078000F5E502C005900D92A839B107D9F70E948E
:10079000A8220C94462A0C940000E8EDF0E0808139
:1007A0008E7F80831092E2001092DA001092E100B6
:1007B000A0EEB0E08C9181608C9380818F778083F4
:1007C00019BCA7EDB0E08C918E7F8C9380818F7ED9
:1007D00080831092A30208952091E4003091E500F7
:1007E00095E6A9012091EC00822F817020FF06C0C0
:1007F0008091E80080FF06C080E008952091E80025
:1008000022FD1AC08091C802882389F0853089F0C2
:100810008091EB0085FD0FC02091E4003091E50050
:1008200042175307F9F29150E1F684E0089582E00F
:10083000089583E0089581E00895EF92FF920F9369
:100840001F93CF937C018B010E94EC03C82F811171
:1008500017C08091E80085FD0BC08091E8008E777D
:100860008093E8000E94EC03882399F3C82F08C006
:10087000F70181917F018093F1000150110949F73F
:100880008C2FCF911F910F91FF90EF900895809141
:10089000CA0287FF13C08091E80082FF06C08091E2
:1008A000E8008B778093E80004C08091C802811132
:1008B000F2CF08958091C8028823D9F38091E8008F
:1008C00080FFF8CF8091E8008E77ECCF982F90933F
:1008D000E900242F762F50E0891731F07091EC0059
:1008E0002091ED005091F00021FD07C09F5F9730EF
:1008F00071F78093E90081E008953091EB003E7F2D
:100900003093EB003091ED003D7F3093ED0030915E
:10091000EB0031603093EB007093EC002093ED001E
:100920005093F0002091EE0027FDE0CF80E0089585
:10093000CF92DF92EF92FF920F931F93CF93DF93AB
:10094000C8EDD0E088818F7E8883E7EDF0E080817C
:100950008160808384E082BF81E08093A3028881EC
:100960008E7F888302EE10E0F80110821092DA0088
:1009700081EEC82ED12CF601108288818F77888372
:1009800088818068888388818F7D888319BC1092D4
:10099000C8021092C9021092C7021092C60290EECD
:1009A000E92EF12CF70180818B7F80838881816023
:1009B000888342E060E080E00E946604F601808166
:1009C0008E7F8083F8018081816080838081886050
:1009D0008083F70180818E7F808388818061888316
:1009E000DF91CF911F910F91FF90EF90DF90CF900B
:1009F0000895FC018091D0029091D102861797074B
:100A0000A0F06115710529F49091E8009E7790930C
:100A1000E80090E06115710551F4911108C08091D2
:100A2000E80082FF34C080E00895BC01F2CF8091DD
:100A3000C8028823C1F18530C1F18091E80083FDAF
:100A400030C08091E80082FDEACF8091E80080FF0D
:100A5000E1CF8091F3002091F200382F61157105EC
:100A600019F02830310558F091E02830310509F0AF
:100A700090E02091E8002E772093E800CBCF819181
:100A80008093F100615071092F5F3F4FE7CF809154
:100A9000C802882341F0853041F08091E80083FF4F
:100AA000BECF81E0089582E0089583E0089508951F
:100AB00080E008958091A50208959C014FB7F894B5
:100AC00080919F029091A002A091A102B091A202F8
:100AD0004FBF821B930B08952FB7F89480919F020C
:100AE0009091A002A091A102B091A2022FBF0895FF
:100AF00080916002811110926002089580915F02DE
:100B000090915E02892B90915D02892B80939A01CE
:100B1000909160029923A1F0892B80939A01809192
:100B20001C01882341F180916D0287FF24C08EE172
:100B3000ECE9F1E090E0815000F591110E94780518
:100B4000E0917002F09171023097E1F080911C0108
:100B5000882359F080916D0287FF07C080919A0128
:100B600080939B0185E080939A010280F381E02DC0
:100B70008AE991E0099486E0DBCF21912223D9F222
:100B80009F5FD9CF089590911C019923D1F0909146
:100B90006D0297FF16C0E82FE695E695E695EE31D3
:100BA000E0F4F0E0E656FE4F282F277081E090E059
:100BB00001C0880F2A95EAF7809592818923828364
:100BC0000895ECE9F1E09191891303C0DF011197D9
:100BD0001C9291E0E23AF907B1F7089590911C0157
:100BE0009923C1F090916D0297FF14C0E82FE6950C
:100BF000E695E695EE31F8F4F0E0E656FE4F8770A4
:100C000021E030E001C0220F8A95EAF78281822B31
:100C100082830895ACE9B1E0EFEF90E02D91821767
:100C200051F0EF3F19F4211101C0E92F9F5F963079
:100C3000A9F7EF3F09F408950E2E000CFF0BE656BE
:100C4000FE4FE6CF2CE0929F800D1124982F9770D5
:100C500086958695869525E0829FF0011124E25CB9
:100C6000FD4F50E040E080E0219130E0092E02C0CD
:100C7000369527950A94E2F721703327042E01C098
:100C8000220F0A94EAF7822B4F5F5F4F45305105E0
:100C900059F708952CE0929F800D1124982F97709A
:100CA00041E001C0440F9A95EAF7869586958695AE
:100CB00095E0899FF0011124E25CFD4F90E080E017
:100CC00070E05191DF0111979B01082E02C036950B
:100CD00027950A94E2F721702195252724232527BB
:100CE0002C9301968530910561F7089580913D021E
:100CF00090910C02981301C008958F5F8770FACF0E
:100D0000882341F0809590915F02892380935F0250
:100D10000C947E050895882339F090915F02982BFA
:100D200090935F020C947E05089520910202309109
:100D300003022817390771F090930302809302028F
:100D4000E0917002F0917102309721F00084F185FA
:100D5000E02D099408952091000230910102281796
:100D6000390771F09093010280930002E0917002C4
:100D7000F0917102309721F00680F781E02D0994FF
:100D80000895E0917002F0917102309721F0019086
:100D9000F081E02D099480E00895CF92DF92EF92E8
:100DA000FF92843030F5811125C090918000977FAB
:100DB000909380002F98282F30E0AFEFBFEF0E9474
:100DC000372A23E030E040E050E00E94152AC901B4
:100DD0002C3764E13607A0F469E070E00E94EE2849
:100DE00070938D0060938C00FF90EF90DF90CF9018
:100DF000089583E090918000986090938000DBCF0D
:100E00002A50374D4F4F5F4F942F832F722F6627F5
:100E100025EF38E241E050E00E94152A69017A018D
:100E2000CA01B9010E94D2289B01AC01C701B601D9
:100E30000E94D228672F782F892F99276115710575
:100E400021E08207910561F66FEF7FEFC9CF282F70
:100E5000220F220F220F90918F029770922B909366
:100E60008F02987F21E009F420E090918F0220FB0F
:100E700090F990938F020C94CD06FA01811101C074
:100E8000FB01099480919202982F9E7F61F48170FA
:100E900082608093920280919502873918F086E9EA
:100EA0008093950208958635B0F381708465F1CF03
:100EB000AF92BF92DF92EF92FF920F931F93CF9367
:100EC000DF93182F062FE901473908F046E9E42F90
:100ED000F0E0E658FD4F011110C0E4915E2F4E2F57
:100EE0004983E8835A83DF91CF911F910F91FF903F
:100EF000EF90DF90BF90AF900895202F30E04491A5
:100F0000D42EE42EF12C56E0159FC0011124EFEFF2
:100F1000F0E0BF010E94EE28812F90E0880F991F1A
:100F200055E5569FD001579FB00D11248A1B9B0B8E
:100F3000982F990F890F5F01A21AB30AAE9CD001B6
:100F4000AF9CB00DBE9CB00D11245B2F089F80019B
:100F50001124012F11275F01A01AB10AAE9C800154
:100F6000AF9C100DBE9C100D11245F01A81AB10892
:100F7000A29EC001A39E900DB29E900D1124892FB8
:100F80009927E81BF90BEE9DC001EF9D900DFE9D8A
:100F9000900D1124E92F62307105A1F050F4611514
:100FA000710509F49DCF6130710581F0EB2F512F50
:100FB00097CF6430710569F080F06630710509F4EF
:100FC0008FCFF4CFE42F4B2F592F8ACFE42F412F0F
:100FD00087CFEB2F542F492F83CF4B2F5D2DE12F40
:100FE0007FCF0E946C059C019091810280918202CA
:100FF000982B21F030937E0220937D029091830202
:1010000080918402982B21F030937B0220937A0206
:10101000E0917002F0917102309749F082E0809384
:101020007F020480F581E02D8FE792E00994089516
:1010300090E080E00E94AB0690E080E00E94950680
:1010400010925E0210925D020E947E0586E0EFE73C
:10105000F2E0DF011D928A95E9F710927C0210926E
:101060007902109205020C94F1076093D5027093F7
:10107000D6028093D7029093D8020C9418080F934D
:101080001F936091D5027091D6028091D702909102
:10109000D8028B019C0106701127222733270630C6
:1010A00011052105310529F468601F910F910C94F9
:1010B0003508677FFACF0F931F9341E050E060E05F
:1010C00070E004C0440F551F661F771F8A95D2F742
:1010D000CB01BA0160957095809590950091D502ED
:1010E0001091D6022091D7023091D802602371234B
:1010F000822393231F910F910C94350890915C02E9
:101100008095892380935C02282F277071F4282F03
:10111000082E000C330B9217130639F08595859530
:1011200085950E945B0810925C0208950F931F93AF
:1011300041E050E060E070E004C0440F551F661FBE
:10114000771F8A95D2F78091D5029091D602A0910F
:10115000D702B091D8028A019B01082B192B2A2BA8
:101160003B2BC901B8011F910F910C943508609376
:1011700061027093620280936302909364020C9404
:10118000180890918102803F59F48091820287FF74
:101190000DC01092820291110BC010927C0208C007
:1011A000813F81F48091820218169CF3992381F08B
:1011B0008091830290918402892B09F064C010927F
:1011C00079020895823F49F497FFF0CF109281028F
:1011D000809182028111ECCFE0CF833F19F4191680
:1011E000ACF3E4CF20918302893F29F41216F4F680
:1011F00010928302DBCF8A3F19F427FFD7CFF8CFB5
:10120000209184028B3F29F427FFD0CF10928402D3
:10121000CDCF8C3F19F41216CCF3C8CF843F31F4F4
:10122000809180028E7F80938002C0CF853F21F421
:10123000809180028D7FF7CF863F21F480918002DC
:101240008B7FF1CF873F21F480918002877FEBCFA6
:10125000883F21F4809180028F7EE5CF8D3F31F46D
:10126000809105028E7F80930502A0CF8E3F21F4EE
:10127000809105028D7FF7CF8F3F09F097CF809146
:1012800005028B7FF0CF0895882309F459C0823876
:1012900071F40E94C10681FF53C089E30E94EE05EC
:1012A0000E947E0589E30E94C3050C947E05833865
:1012B00059F40E94C10680FF43C083E50E94EE05F9
:1012C0000E947E0583E5EFCF843859F40E94C10661
:1012D00082FF36C087E40E94EE050E947E0587E407
:1012E000E2CF9CEF980F913AF0F290E2980F98308D
:1012F00088F4877021E030E0A90102C0440F551F37
:101300008A95E2F7CA01809590915F0289238093C4
:101310005F02CBCF9BE5980F933020F490E080E004
:101320000C94AB0698E5980F973120F490E080E09C
:101330000C949506803F20F00E94C1080C94F107A0
:1013400008958091050280FD16C081FD16C082FDC2
:1013500016C0809179028823A1F0883280F428E0B9
:10136000829FC001112468E270E00E940229862F4A
:10137000672B39F0089582E0089584E0089588E0AD
:10138000089581E008958091050280FD14C081FDDB
:1013900014C082FD16C080917C02882381F08431C4
:1013A00080F422E3829FC001112464E170E00E9476
:1013B0000229862F08958CE0089589E1089585E03B
:1013C000089582E30895803F31F40E94C309819516
:1013D000809382020895813F19F40E94C309F8CFD7
:1013E000823F31F40E94C309819580938102089560
:1013F000833F19F40E94C309F8CF893F29F40E9462
:10140000A1098093830208958A3F21F40E94A109D3
:101410008195F7CF8B3F31F40E94A109819580938C
:10142000840208958C3F19F40E94A109F8CF843FEB
:1014300031F4809180028160809380020895853F1D
:1014400021F4809180028260F7CF863F21F4809161
:1014500080028460F1CF873F21F480918002886010
:10146000EBCF883F21F4809180028061E5CF8D3FF2
:1014700031F48091050281608093050208958E3FCA
:1014800021F4809105028260F7CF8F3FB9F78091F8
:1014900005028460F1CFF894E82FE295EF70F0E058
:1014A00031A1282F2F7081E090E001C0880F2A958C
:1014B000EAF7982F9095932391A392A1892B82A369
:1014C0007894089590916D0292FF06C0282F28719C
:1014D0002830F9F4877F846093FF06C0282F287195
:1014E0002831F1F4877E846120916E0220FF06C0CE
:1014F000382F38713830D9F4877F816021FF06C0DA
:10150000282F28712831D1F4877E816194FD877E50
:101510000895282F24712430F9F68B7F8860DCCF62
:10152000282F2471243101F78B7E8861DDCF382F7D
:101530003171313019F78E7F8860E0CF282F21710B
:10154000213121F78E7E8861E1CFCF9384E090E056
:101550000E949B29C82F81E290E00E949B29982F2E
:101560008C2FCF9108950F931F93CF93DF938430E7
:1015700030F5643020F54C3010F5C42FD0E0CC0F9E
:10158000DD1F28E1629FC00DD11D112430E6839F2D
:10159000C00DD11D1124CE0186960E949B29082FD3
:1015A00010E0102F0027CE0187960E949B299801FA
:1015B000282BC901DF91CF911F910F91089590E0E1
:1015C00080E0F8CF462F843038F4743028F46C3043
:1015D00018F4672F0C94B30A90E080E00895CF933D
:1015E000DF930E94E20AEC0182389105A9F1D8F557
:1015F0008133910509F496C048F58932910509F4C3
:101600008AC08A9709F495C0C11521E5D20708F070
:10161000BCC0C11530E5D30708F014C1C83ED105E0
:1016200008F09CC0C03ED10560F5C83AD10508F06D
:1016300087C0C53AD10508F0FDC0C130D10509F118
:101640002097F9F0C430D105E0F440C0853391050E
:1016500009F45AC0C997C1F680916D02837089F070
:10166000C0EED0E00EC0833E910599F170F4803E4B
:10167000910501F1823E910539F680916D0282FD5E
:1016800021C0CE01DF91CF910895863E910561F191
:10169000873E910571F1843E910509F0B5CF8091A7
:1016A0006E0281FFEECF80916D02C7EED0E084FD27
:1016B0000DC0E7CF80916D0280FD12C190916E0246
:1016C00090FFDFCFC3EED0E084FFDBCFD0E0C0E0FF
:1016D000D8CF80916D0282FD06C190916E0290FD7F
:1016E000BFCF84FFCECFF2CF80916D0283FDDDCFDF
:1016F000C8CF80916D0283FDF9C090916E0291FF79
:10170000F0CFC4EED0E0BDCF80916D0285FFB9CFA0
:10171000C9E2D0E0B6CF80916D0285FFB2CFC5E3BC
:10172000D0E0AFCF80916D0286FFABCFCAE2D0E0B0
:10173000A8CF80916D0286FFA4CFC1E3D0E0A1CFF6
:10174000CF3BD10518F6C85AD0E0CC0FDD1FC55BE2
:10175000DE4F0990D881C02DD46493CFC11540E2EB
:10176000D40758F4C11581E0D80708F08ACFC03FEC
:10177000D10508F4ABCFD06584CFC11590E4D9076B
:1017800008F4A4CFDF70D06A7CCFC11525E5D2075D
:1017900000F5C11534E5D30708F08AC0C11543E54B
:1017A000D40708F071C0C11582E5D80708F467C0F6
:1017B000CE018370992721E030E002C0220F331F51
:1017C0008A95E2F7C695C69580E2C89FE00111248C
:1017D00052C0C11599E5D907A8F4C11528E5D2076B
:1017E00008F06BC0C11536E5D30708F06FCF8C2F1A
:1017F0000E94620AC82FD0E0DC2FCC27CC27DF71F3
:10180000D0623FCFC1154AE5D40708F45BC0CE01D2
:1018100090568115904208F059CF8D2F8F710E94FC
:10182000620A90E0982F882788279F719C012C2BB3
:10183000E901E6CFC55AD0E0C85BDE4FC881D0E0F1
:10184000D0641FCFCE01E4E096958795EA95E1F745
:1018500083702C2F26952695237040E2249F9001BB
:101860001124382B8C2F8370C1E0D0E002C0CC0F44
:10187000DD1F8A95E2F7C22BD32BDC6802CFDC2F69
:10188000CC27C16FD06AFDCECE018370992721E0AD
:1018900030E002C0220F331F8A95E2F7C695C69545
:1018A00090E2C99FE0011124C22BD32BDA68E9CE64
:1018B000DC2FCC27C46FD06AE4CEDC2FCC27C06FDE
:1018C000D06ADFCE8C2F8F700E94620A34E0D695EA
:1018D000C7953A95E1F7CF709C2FEC01D069D1CE36
:1018E000C9E3D0E0CECEC2EED0E0CBCEC6EED0E0A3
:1018F000C8CEBF92CF92DF92EF92FF920F931F93C9
:10190000CF93DF938C01C090D502D090D602E090A7
:10191000D702F090D8028091610290916202A0916A
:101920006302B0916402C82AD92AEA2AFB2ACFE1CD
:10193000D0E0BC2ED701C6010C2E04C0B695A795E9
:10194000979587950A94D2F780FD0EC0219788F766
:10195000B12C8B2DDF91CF911F910F91FF90EF90C4
:10196000DF90CF90BF900895B8018C2F0E94EF0AAE
:10197000019761F3EECFCF93DF93EC010E94790CD6
:10198000BE01DF91CF910C94EF0A0E94BB0C292F6E
:101990002F7092959F7092509E3078F4E92FF0E06E
:1019A000E85BF54D0C941629803F19F020F4883E31
:1019B00020F481E00895843FE1F380E00895883EBB
:1019C000C0F3813FD1F7F5CF822F86958695869516
:1019D0000895682F86E090E00C94AF29CF93DF93B1
:1019E000C6EAD1E060E0CE010E94AF292196C11580
:1019F00084E0D807B9F7DF91CF9108951F93CF9373
:101A0000DF93122F8430F8F46430E8F44C30D8F4CB
:101A1000C42FD0E0CC0FDD1F98E1699FC00DD11D10
:101A2000112490E6899FC00DD11D1124632FCE0192
:101A300086960E94AF29612FCE018796DF91CF91C4
:101A40001F910C94AF29DF91CF911F910895AF9210
:101A5000BF92CF92DF92EF92FF921F93CF93DF93CB
:101A60008FE7C82E84E0D82ED0E07601C0E014C005
:101A7000F50125913491412F6C2F8D2F0E94FE0C82
:101A800082E0A80EB11C1F5F1C3091F788E1E80EC0
:101A9000F11CCF5FC43019F0570110E0E9CFDF5FD0
:101AA00080E6C80ED11CD43001F7DF91CF911F9191
:101AB000FF90EF90DF90CF90BF90AF900895CF93BD
:101AC000DF9300D00F92CDB7DEB79091C80294306B
:101AD00011F589837B836A839093E9008FEF90915E
:101AE000E800815095FD06C095ED9A95F1F700004C
:101AF0008111F5CF8091E80085FF0DC050E040E0F6
:101B000063E070E0CE0101960E941D048091E80020
:101B10008E778093E8000F900F900F90DF91CF9118
:101B20000895BC0184E00C945F0DBC0183E00C942B
:101B30005F0D9C0184E08093E9009FEF8091E800B5
:101B4000915085FD06C085ED8A95F1F70000911151
:101B5000F5CF8091E80085FF0CC050E040E066E0E2
:101B600070E0C9010E941D048091E8008E77809387
:101B7000E8000895CF93DF93EC0180911C01882346
:101B8000B1F180916D0287FF32C060E284E0809302
:101B9000E9008FEF9091E800815095FD06C095ED2A
:101BA0009A95F1F700008111F5CF8091E80085FF4B
:101BB0001BC080911C0170E050E040E0811104C026
:101BC00050E040E068E070E0CE010E941D0480918A
:101BD000E8008E778093E80080E2FE01A6EAB2E09A
:101BE00001900D928A95E1F7DF91CF91089568E019
:101BF00081E0CDCF81E08093E00080E28093D80047
:101C00001092C9008FE19EE40197F1F700C0000037
:101C100087E090EBDC018093D9029093DA02A093E5
:101C2000DB02B093DC0288E19CE00FB6F894A89543
:101C3000809360000FBE90936000FFCFCF93C82FBA
:101C4000882309F4AEC08238C1F40E94C10681FD28
:101C5000A8C089E30E94EE050E947E052FEF81EE69
:101C600094E0215080409040E1F700C0000089E3FB
:101C70000E94C305CF910C947E058338A1F40E9485
:101C8000C10680FD8EC083E50E94EE050E947E05A0
:101C90002FEF81EE94E0215080409040E1F700C0AA
:101CA000000083E5E5CF8438A1F40E94C10682FDDF
:101CB00078C087E40E94EE050E947E052FEF81EE3A
:101CC00094E0215080409040E1F700C0000087E49C
:101CD000CFCF8CEF8C0F813A88F580911C0188233F
:101CE00001F180916D0287FF1CC0EC2FE695E6950F
:101CF000E695F0E0E656FE4F828190E04C2F47706B
:101D000021E030E002C0220F331F4A95E2F7822320
:101D10009323892B79F08C2F0E94C3050E947E05A6
:101D200009C0ECE9F1E08191C817A9F321E0E23A9A
:101D3000F207C9F78C2F0E94EE059CCF80E28C0F32
:101D4000883068F4C77021E030E001C0220FCA95E6
:101D5000EAF780915F02822B80935F028BCFEBE5E5
:101D6000EC0FE33040F4F0E0E85BFE4F808190E060
:101D7000CF910C94AB06E8E5EC0FE73150F4F0E0BE
:101D8000EE0FFF1FE55BFE4F80819181CF910C9498
:101D90009506C03F30F08C2F0E94E309CF910C9440
:101DA000F107CF9108951F93CF93DF93182FD0E0C1
:101DB000C0E0893311F4C0E5D0E0812F0E941E0EEF
:101DC000209731F4812FDF91CF911F910C9444091A
:101DD0008FE99FE00197F1F700C000002197F0CF55
:101DE0000F931F93CF93DF93C62FD42F022FFC01A5
:101DF00082818823A1F06093D4020E946C059093A5
:101E0000D3028093D202C77081E001C0880FCA95C7
:101E1000EAF7DF91CF911F910F910C948B0680917F
:101E2000D402681335C08091D2029091D3020E94EF
:101E30005D05883C910560F510E21D0FCD17B9F0E6
:101E400080E28C0F883040F4C77081E001C0880FB9
:101E5000CA95EAF70E948006183048F481E09D2F69
:101E6000977001C0880F9A95EAF70E948B06802F21
:101E70000E94D30E183098F4D77081E001C0880F0B
:101E8000DA95EAF7DF91CF911F910F910C948006BC
:101E9000C77081E001C0880FCA95EAF7F3CFDF91E0
:101EA000CF911F910F9108958091920280FD0AC0F9
:101EB000E0ECF1E0118210821282339651E0E83DAD
:101EC000F507C1F76A9A3EB13B7F2EB124604FB748
:101ED000F89480EC91E0FC015191CF0168E02EB9BB
:101EE000000000C057FF3EB9550F000000C000C001
:101EF00000C03EB900C06A9591F7F1E0883D9F07A8
:101F000051F74FBF8FE594E00197F1F700C0000053
:101F10000895EF92FF921F93CF93DF93EC0180EC33
:101F2000E82E81E0F82E10E08C8197014091950217
:101F300060919402810F0E945807115E83E0E80EC1
:101F4000F11C183F89F70E94540F9A818C8190FFF1
:101F500008C08F5F8C83DF91CF911F91FF90EF902E
:101F600008958150F7CFCF92DF92EF92FF920F93B7
:101F70001F93CF93DF93FC018281DD24DA9480FDEF
:101F800002C0DD24D394C0ECD1E010E000E019825F
:101F900018821A8294E0E92EF12CC12C8091BD01A7
:101FA0008C0D8930CCF18770082E000C990B8017AE
:101FB000910791F4809195028E9DA0018F9D500D07
:101FC000112455954795559547959E01609194022A
:101FD000809193020E945807CD0CF1E0EF1AF108AE
:101FE000E9F60F5F1F4F23960830110581F60E9416
:101FF000540F8091BD0191E0D91214C0811110C01D
:1020000087E08093BD01DF91CF911F910F91FF90E9
:10201000EF90DF90CF90089587FFC6CF885FC4CF41
:102020008150EFCF90E0019687709927EACF0F9308
:102030001F93CF93DF93C0ECD1E0FE011182108299
:102040001282339681E0E83DF807C1F710E000E026
:102050008091BE01082E000C990B081719078CF10E
:1020600080911001082E000C990B801791074CF1FC
:102070009E014091950260919402809193020E948A
:1020800058070F5F1F4F23960830110509F70E946C
:10209000540F80910F019091BE01980F9093BE0153
:1020A00020911001280F20931001121614F497307C
:1020B0001CF0819580930F01DF91CF911F910F91BB
:1020C0000895198218821A82DCCF8F929F92AF9264
:1020D000BF92CF92DF92EF92FF920F931F93CF9315
:1020E000DF93EC014C81042F10E09801D8010E948D
:1020F000372A9B01AC010E94022A4B015C01E0E2FD
:10210000F0E0E01BF10BA5E5B0E0AC019B010E9403
:10211000022A6B017C019F01DF010E9423299B01A0
:10212000AC010E940D2A9B01AC01280D391D4A1DEE
:102130005B1DC701B6010E94152AF22E822F90E086
:1021400039E23F15D8F143E0249F900111243595E1
:102150002795122F109590ECC92E91E0D92E00E012
:1021600085E5E82EEF188E2D01FD8F2D9601412F6C
:10217000609194020E9458070F5F53E0C50ED11C76
:10218000083089F70E94540F9C8181E0992319F04F
:10219000903219F48FEF8093110180911101890F12
:1021A0008C83DF91CF911F910F91FF90EF90DF9083
:1021B000CF90BF90AF909F908F90089525E530E02D
:1021C000A901481B590BCA019A01220F331F280F7E
:1021D000391F37FFBCCF2F5F3F4FB9CFEF92FF9230
:1021E0000F931F93CF93DF938C01C0ECD1E0F12CC0
:1021F000E12CF80194816091940280919302F4E0C3
:10220000EF16F104FCF49923F9F09E014091950238
:102210000E9458072FEFE21AF20A239688E0E81688
:10222000F10439F70E94540FF801848190E001967F
:10223000817099278483DF91CF911F910F91FF9037
:10224000EF900895992309F39E0140E0E1CF90912A
:10225000920290FF0CC0E0ECF1E081836083428346
:10226000339691E0E83DF907C1F70C94540F0895B7
:102270000F931F93CF93DF9300D00F92CDB7DEB7AC
:102280008C018091BF0181110AC09E012F5F3F4FD9
:1022900046E96FEF0E9458078A818093BF01F801D9
:1022A0006481613069F08091BF0140E0662361F094
:1022B00040E0623011F44091BF0180E060E004C072
:1022C0006091BF0140E080E00E942711F801848105
:1022D00090E0019663E070E00E94022984830F90F1
:1022E0000F900F90DF91CF911F910F910895CF9391
:1022F000DF9300D00F92CDB7DEB79091920290FF9E
:102300000AC09E012F5F3F4F0E9458074B81698191
:102310008A810E9427110F900F900F90DF91CF912B
:102320000895CF93DF93EC01EC81F0E0E158FC4F8E
:102330004491E2E9F2E0628181810E9477118C810F
:102340008F5F8C83DF91CF910895CF93DF93EC0162
:10235000E2E9F2E0438162818C810E9477118C81F5
:102360008F5F8C83DF91CF910895AF92BF92CF9210
:10237000DF92EF92FF920F931F93CF93DF9309E7C2
:1023800011E0C5E6D2E0C12CD12CEE24E394F12C6F
:10239000F80181918F01F894E82FE295EF70F0E059
:1023A00021A18F70A70102C0440F551F8A95E2F743
:1023B000CA01922F982B91A392A18095892382A381
:1023C000789400C0EDE7F1E030E020E0B12CA12CE2
:1023D0004191A42FA295AF70B0E090968C9190E0BF
:1023E0004F7002C0959587954A95E2F780FD5EC0D3
:1023F000C701022E02C0880F991F0A94E2F7A82A8B
:10240000B92A2F5F3F4F2C30310511F7F801319772
:1024100080810E944B0A53E0C51619F080EA8A9524
:10242000F1F788819981A816B90609F442C0B982EA
:10243000A88281E0D82AC3942296E4E0CE12A8CFE5
:10244000DD20C9F181E08093BC010E946C0590936E
:10245000BB018093BA018091BA019091BB010E94A7
:102460005D05069760F180916502909166029093F8
:1024700098028093970280916702909168029093EE
:102480009A02809399028091690290916A029093D6
:102490009C0280939B0280916B0290916C029093BE
:1024A0009E0280939D021092BC0109C090E080E0E2
:1024B000A6CF80E0BFCF8091BC018111CCCF8D2D04
:1024C000DF91CF911F910F91FF90EF90DF90CF9010
:1024D000BF90AF900895AF92BF92CF92DF92EF92EC
:1024E000FF920F931F93CF93DF93EC018AE0A82E06
:1024F0002881222309F48CC02130C9F599818A8171
:10250000913021F422960E94D30E05C0923029F416
:1025100022960E941E0E2196EBCF933021F4229634
:102520000E944409F8CF943011F02196F4CF2296FE
:1025300030E020E0AE014F5F5F4F8053990B8A304F
:10254000910550F02150310930F38FE99FE0019758
:10255000F1F700C00000F6CFA29EB001A39E700D5F
:1025600011249C01260F371F8981EA01E3CFE22F56
:10257000F0E0E650FE4FB490822F869586958695C2
:1025800090E0FC01E651FE4FE4902770F12C022E02
:1025900002C0F594E7940A94E2F731E0E322FF24C5
:1025A000FC01E652FE4FC490D12C022E02C0D594FD
:1025B000C7940A94E2F731E0C322DD24FC01E6531C
:1025C000FE4F049110E002C0159507952A95E2F799
:1025D00001701127E114F10419F081EE0E941E0E22
:1025E000C114D10419F086EE0E941E0E8B2D0E949C
:1025F000D30ECD2819F086EE0E944409EF2819F079
:1026000081EE0E944409012B09F485CF8CE27BCF37
:10261000DF91CF911F910F91FF90EF90DF90CF90BE
:10262000BF90AF9008954F925F926F927F928F927A
:102630009F92AF92BF92CF92DF92EF92FF920F9351
:102640001F93CF93DF93FC016280448081E08483F9
:10265000EFE7F3E07490EEEFF3E0E491C8EDD1E042
:1026600030ECE32E31E0F32E40E0C42E42E0D42ED5
:1026700052E0A52EBB24B39488248A94912C55242F
:102680005A94E7190E2F10E082E0861530F0809101
:1026900093028883809194028983411021C01B8218
:1026A0001A8297014A81698188810E94580725967C
:1026B00083E0E80EF11CCC16DD0631F7DF91CF91F7
:1026C0001F910F91FF90EF90DF90CF90BF90AF9050
:1026D0009F908F907F906F905F904F900C94540FCD
:1026E0008B818823E9F081508B83859DC001112463
:1026F0006C8170E00E94EE28FB01FF27E158FC4F3F
:102700008491E82FE719E59DC0011124B8010E94CA
:10271000EE2880919502689FB00111247A83C1CF81
:102720000E947E2920919502269521582A9DA0017C
:102730002B9D500D1124452F5527841795070CF01C
:10274000B0CF82E0861588F40E947E29B4010E94F1
:10275000022988830E947E29209194022695622F67
:1027600070E00E940229280F29831A828091950225
:10277000893C20F088EC8C838B8393CF8431D8F70D
:1027800084E1F9CF90E080E00E94A92921E08B3E0E
:102790009E4F09F020E0822F08956BEE7EEF90E0CF
:1027A00080E00E94CD2960E082E090E00E94AF29A5
:1027B00060E083E090E00E94AF29109261021092E5
:1027C0006202109263021092640260E084E090E082
:1027D0000E94AF2960E081E290E00E94AF2960E0B2
:1027E00085E090E00E94AF2960E086E090E00E94E2
:1027F000AF296FEF87E090E00E94AF2940E050E002
:10280000BA0188E090E00E94C12960E08DE090E08C
:102810000E94AF2940E050E0BA0188E190E00E94B8
:10282000C12960E087E190E00E94AF2940E050E0DC
:10283000BA018CE190E00E94C12960E080E290E062
:102840000E94AF2940E050E0BA0188E190E00E9488
:10285000C12940E050E0BA018FE090E00E94C12918
:1028600040E050E0BA0183E190E00C94C1290E945D
:10287000C213811102C00E94CD1386E090E00E9435
:102880009B2980938F02803220F08770886180932B
:102890008F0290918F02892F817090FF04C0892F41
:1028A0008695869586950C94CD06CF92DF92EF9211
:1028B000FF926B017C010E944207B701A60188E0EC
:1028C00090E0FF90EF90DF90CF900C94C1297F9221
:1028D0008F929F92AF92BF92CF92DF92EF92FF9230
:1028E0000F931F93CF93DF9300D00F92CDB7DEB736
:1028F000182FD62E042FC22E9091920290FF29C03D
:10290000E92FE695AE2FB0E0A35EBE4F8C91809389
:1029100090029E7F923071F59E012F5F3F4F812F75
:102920000E9458074B8169818A810E942711109368
:102930009302D092940200939502CC2051F06091C2
:1029400092027091930280919402909195020E945C
:1029500055140F900F900F90DF91CF911F910F9111
:10296000FF90EF90DF90CF90BF90AF909F908F90AF
:102970007F900895823019F400919502D8CF863067
:1029800019F410919302D3CF8930D9F3893179F6B4
:10299000E9512E2F2170722EE695F0E0E658FC4F9B
:1029A00085909490992430ECE32E31E0F32EB12CF5
:1029B000A12CC50123E0969587952A95E1F7711022
:1029C00013C0810F9701402F6D2D0E945807A80C4E
:1029D000B91C83E0E80EF11C28EDE21621E0F206B6
:1029E00041F70E94540FA3CF212F281B822FEACF3B
:1029F000E2E9F2E0438128E0421B08F440E021E0F4
:102A0000628181810C946714E2E9F2E0438128E05D
:102A1000420F08F44FEF21E0628181810C9467142A
:102A2000E2E9F2E0628128E0621B08F460E021E064
:102A3000438181810C946714E2E9F2E0628128E02D
:102A4000620F08F46FEF21E0438181810C946714D9
:102A5000E2E9F2E0818121E04381628188500C94B7
:102A60006714E2E9F2E0818121E043816281885FBD
:102A70000C94671480919602882319F081508093FA
:102A800096026091920270919302809194029091CB
:102A900095020C94551480919602833018F48F5F40
:102AA00080939602609192027091930280919402B9
:102AB000909195020C945514E2E9F2E083E0808352
:102AC00011828FEF828386E9838314826081718112
:102AD000828193810C94551410925F0280911C01A5
:102AE000ECE9F1E0882359F080916D0287FF07C07F
:102AF0008EE1DF011D928A95E9F70C94180886E0B3
:102B0000F8CF1F93CF93DF93CDB7DEB7AA970FB659
:102B1000F894DEBF0FBECDBF8AEC92E02091F100A9
:102B2000DC012D93CD01B2E0823D9B07B9F7809186
:102B3000CB02833009F471C0B8F4813009F448C085
:102B4000823009F4B2C08091E80083FF3AC18091DD
:102B5000CA029091CB029A3008F033C1E92FF0E01D
:102B6000EA5AF54D0C9416298A3009F48DC08B3041
:102B700009F470C0893039F78091CA02813219F79F
:102B80008091CE029091CF02009711F00297D9F672
:102B90008091E800877F8093E8008091E80082FFC1
:102BA00037C09091F3008091F200029729F4809150
:102BB000F1008B7F813021F48091F1008093A50298
:102BC0008091E8008B778093E8000E944704BBCF98
:102BD0008091CA02813A09F0B6CF8091E800877FE0
:102BE0008093E8008091CE029091CF02892B61F40E
:102BF00060E286EA92E070E00E94F9048091E800C9
:102C00008B778093E8009FCF60E090E080E0F3CF87
:102C10008091C8028111C1CF96CF8091CA02813ABA
:102C200009F091CF8091CE029091CF02892B09F0CB
:102C30008ACF8091E800877F8093E8008091E80048
:102C400080FFFCCF80911C018093F1008091E8000F
:102C50008E77B9CF8091CA02813209F074CF80910A
:102C6000CE029091CF02892B09F06DCF8091E800C0
:102C7000877F8093E8000E9447048091CC02809374
:102C80001C010E946C155FCF8091CA02813209F04D
:102C90005ACF8091E800877F8093E8000E94470424
:102CA0008091CD028093A4024ECF8091CA02813AD6
:102CB00009F049CF8091E800877F8093E8008091F8
:102CC000E80080FFFCCF8091A402BECF803899F04D
:102CD000823809F076C08091CE028F70873008F07C
:102CE00070C08093E9008091EB0085FB882780F914
:102CF0001092E90006C08091C6029091C70291111E
:102D000082609091E800977F9093E8008093F100B3
:102D10001092F1008091E8008E77C0C1882309F4F9
:102D2000ADC1823009F04DC08091CC028111B1C19A
:102D30008091CE028F702FEF280F263008F041C00F
:102D40008093E9002091EB0020FFA3C1933031F480
:102D50008091EB0080628093EB009BC19091EB002F
:102D600090619093EB0021E030E001C0220F8A9542
:102D7000EAF72093EA001092EA008091EB00886065
:102D8000EACF81111EC01091CC021F778091E30021
:102D90008078812B8093E3008091E800877F809387
:102DA000E8000E9447048091E80080FFFCCF8091FA
:102DB000E30080688093E30082E0111183E0809358
:102DC000C8028091E80083FF0AC08091E800877FF5
:102DD0008093E8008091EB0080628093EB00AA96DC
:102DE0000FB6F894DEBF0FBECDBFDF91CF911F911C
:102DF00008958058823028F72091CC023091CD027E
:102E00002C3DE3E03E07A1F583E08A838AE28983D3
:102E10004FB7F894DE01139620E03EE051E2E32F35
:102E2000F0E050935700E49120FF03C0E295EF706B
:102E30003F5FEF708E2F90E0EA30C0F0C7968D9321
:102E40009D932F5F243159F74FBF8091E800877F12
:102E50008093E8006AE270E0CE0101960E94F904D6
:102E60008091E8008B778093E800ABCFC096E7CFE6
:102E70008091CE029091CF02432F552743305105C8
:102E800009F44AC078F54130510509F485C08BE555
:102E900090E0E4E7F6E04230510509F092CF20914E
:102EA000E800277F2093E8002091D0023091D102E2
:102EB0008217930708F49C0140E02115310509F0C1
:102EC00070C041116EC08091E80082FDC9CF809131
:102ED000C802882329F2853019F28091E80083FF27
:102EE000F2CFBECF4132510509F447C042325105FD
:102EF00009F067CF8330910508F063CFFC01EE0F36
:102F0000FF1FE457FE4F0190F081E02D87579E4F41
:102F1000DC018C9190E01DC0332721303105E9F0B0
:102F20002115310579F022303105F9F023303105D2
:102F300009F047CFE1EEF6E0E4918E2F90E0E1EE6C
:102F4000F6E007C0E3E0F7E0E4918E2F90E0E3E0E5
:102F5000F7E0009709F435CFA2CFEBEFF6E0E4916C
:102F60008E2F90E0EBEFF6E0F4CFE7EEF6E0E491A1
:102F70008E2F90E0E7EEF6E0ECCF8330910508F07D
:102F800020CF880F991FFC01EE56FE4F0190F08173
:102F9000E02D89E090E083CF82E190E0EFECF6E075
:102FA0007ECF8091C802882309F45ACF853009F476
:102FB00057CF8091E80083FD53CF8091E80082FDD8
:102FC00082CF8091E80080FF78CF9091F3008091CC
:102FD000F2002115310519F08830910550F041E0DB
:102FE000089709F040E08091E8008E778093E80030
:102FF00064CF44914093F1003196215031090196FC
:10300000E8CF803809F0DDCE8091E800877F80939B
:10301000E8008091C9028093F1007CCE8111D1CE6D
:103020001091CC02123008F0CCCE8091E800877F5E
:103030008093E8001093C9020E944704112311F005
:1030400084E005C08091E30087FDFACF81E08093A2
:10305000C80242E061EC81E00E94660442E261EC59
:1030600084E00E94660442E261EC82E00E94660411
:1030700042E260EC83E00E946604A3CE8091CC0221
:10308000813009F09ECE81E0933009F080E080939A
:10309000C7021092E9008091E800877F8093E800E2
:1030A0000E9447048ECE9091920290FF3DC0917095
:1030B000811129C0926090939202662351F0609131
:1030C00092027091930280919402909195020E94D5
:1030D000551460919202669570E04BE050E084E0F8
:1030E00091E00E948E29892BA9F01092910281E033
:1030F0008093760220E04091950260919402809145
:1031000093020C9467148B3210F09465D4CF880F1F
:10311000982BD1CF81E0809391020E946C0590930F
:10312000740280937302E3CF089580919202869592
:10313000815009F48AE261E00C9453188091920264
:1031400086958F5F8B3208F081E061E00C94531814
:103150009091920290FF07C09695981720F09617CD
:1031600010F40C949E1861E00C9453184F925F92E7
:103170006F927F928F929F92AF92BF92CF92DF9287
:10318000EF92FF920F931F93CF93DF9300D000D065
:103190000F92CDB7DEB77C01FC0183819481892B2E
:1031A00031F08081918189238F3F09F0C4C50F9050
:1031B0000F900F900F900F90DF91CF911F910F9173
:1031C000FF90EF90DF90CF90BF90AF909F908F9047
:1031D0007F906F905F904F9008950E94790C182F08
:1031E000682F89819A810E944A0669817A81812F9C
:1031F0000E94E20A8C01F7019281992309F470C5BB
:10320000980122513F452031310508F030C58FEF3C
:1032100093E00E949B294EEED42ED00E06EA11E0D8
:103220008823D1F080915C02877009F4C0CFF70148
:103230008281882309F4BBCF82E00E947E08B7CF49
:103240000115F4E01F0771F3C8010E949B29811149
:1032500001C0DA940F5F1F4FD110F2CF19821A828A
:103260001B821C82CC24CA9448012FEF821A920A36
:10327000C8010E949B2989831A82882399F2813090
:1032800009F047C0580132E0A30EB11CC4010E94EE
:103290009B29982E8A83882329F2C5010E949B29A5
:1032A000D82E8FEF890D833068F4580143E0A40EC7
:1032B000B11CDB82DD2021F0CE0101960E946B1251
:1032C0008501D2CF54E09512FBCF580184E0A80EBF
:1032D000B11CC80103960E949B29DD2009F4A2CFEE
:1032E000882309F49FCF8150990BC89E9001C99EF5
:1032F000300D1124ED2DE150FF0BCF01820F931FF4
:103300000197F0F2EFE9FFE03197F1F700C000001C
:10331000F7CFCE0101960E946B125401D1CF81E00C
:103320000E9496080E943F087DCF81E00E945B08C2
:10333000F9CF82E0F5CF82E0F9CF0F3B8CE518079B
:1033400009F44AC098F1003CFCE51F0709F0ABC442
:1033500090918F02892F8695869586958F5F8F71C4
:103360009770843008F059C0880F880F880F892B18
:1033700080938F0280918F0210C083E00E94270704
:1033800080918F020E94E90C4DCF80918F02982F7F
:10339000987FE9F1885080938F02887F91E009F44B
:1033A00090E080918F0290FB80F913C080918F0292
:1033B000982F969596959695933040F49F5F990F28
:1033C000990F990F8770892B80938F0280918F02BC
:1033D000816080938F0219C080918F0280FF09C0A5
:1033E0008E7F80938F020E94E90C80E00E94CD06C0
:1033F00019CF80FD17CF816080938F02813019F43F
:1034000089E080938F0280918F020E94E90C809165
:103410008F02869586958695E9CF90938F02AACFE5
:1034200027E245EE65EE58C426E241EE60EE54C454
:1034300027E245EE64EE50C426E241EE62EE4CC453
:1034400028E241E0EFCF80916D02806106304CE5CB
:10345000140709F489C080916D02886007301C450B
:1034600008F482C080916D0280627EC00C308CE5D1
:10347000180709F48EC070F480916D028C600A30D8
:10348000ECE51E0709F470C008F47DC080916D0260
:103490008E7F6AC080916D02877F0E302CE5120707
:1034A00009F462C080916D028B7F0F301C4508F4D7
:1034B0005BC080916D028F7E57C00B3F4CE51407B7
:1034C00009F459C030F503318CE5180709F46DC0D3
:1034D00078F40131ECE51E0709F463C002311C45A4
:1034E00009F08BC40E946C1580916D028F773CC0EF
:1034F00005312CE5120709F460C008F474C080910E
:103500006E0281600A3F1C4509F077C480936E0209
:1035100074C40F3F5CE5150709F44BC088F4809133
:103520006E028D7F0D3F9CE5190781F380916E023D
:103530008E7F0E3F1C4550F380916E028360E6CF74
:103540000130FDE51F0709F457C008F442C060E0F0
:1035500002301D4509F051C48EE090E00E94AF2971
:103560004CC480916D02816080936D0246C480914D
:103570006D028460F9CF80916E028260C7CF809126
:103580006D028064F1CF0E946C1580916D0280689D
:10359000EBCF80916D028D7FE7CF80916D028F7DA3
:1035A000E3CF80916D028F7BDFCF80916D02837FAF
:1035B000DBCF80916E028C7FA9CF80916D0282FB60
:1035C000992790F921E0922790FB82F990FB83F9EB
:1035D000CBCF80916E02982F909591708E7F892B22
:1035E00090FB81F993CF0E946C1590916D02892F09
:1035F00097FB87F98058B8CF61E0AECF80915F022A
:1036000006314CE5140709F0A7C38A7A91E009F462
:1036100090E090930402811106C089E20E94EE05B9
:103620000E947E05FFCD85E3F9CF85E381C38091BC
:10363000920280FF1BC08E7F809392026091920263
:103640007091930280919402909195020E9455147A
:10365000109291025FEF80E792E0515080409040DD
:10366000E1F700C000000E94540FDCCD8160809320
:10367000920261E086950E945318D4CD45E958E145
:103680006EE978E10E943D07CDCD4EE958E165E94C
:1036900078E1F8CF48E255E161E375E1F3CF41E32A
:1036A00055E168E275E1EECF40E155E16CE175E18D
:1036B000E9CF4CE155E160E175E1E4CF48EF54E139
:1036C00064E075E1DFCF44E055E168EF74E1DACF03
:1036D0004AE355E16BE475E1D5CF4BE455E16AE38C
:1036E00075E1D0CF61E081E0C6CF65E082E00E9465
:1036F000A81898CD68E086E0FACF6EE089E0F7CFB1
:1037000064E18FE0F4CF67E185E1F1CF61E088E12A
:10371000B2CF62E289E1EBCF61E083E2ACCF011589
:10372000ECE51E0709F445C00E3D1C4509F44EC0EA
:10373000F70100811181992309F44BC0C8010E944F
:10374000790CD82E682FC8010E944A06B8018D2D29
:103750000E94EF0A8C01882EF701D280A580A294E6
:103760003FE0A32280915C028770A1F0CD2CDD2088
:1037700091F0812F807F803421F080E2800F8830AB
:1037800048F082E00E947E0880915C028770CC2421
:10379000C3948111C12CB12EB2942FE0B222FBE070
:1037A000FB1508F450C0EB2DF0E0E05AF54D0C94F9
:1037B00016290E946C152FEF34E34CE02150304065
:1037C0004040E1F700C000000E94FA0D0E94CD13B6
:1037D00029CDC8010E942206D82EB8CF212F2F70E4
:1037E000A22E107F19F0A29490EFA922DD20C9F03B
:1037F000AA2069F080E2800F883010F081100BC0A1
:1038000080915F02A82AA0925F020E947E05802F0D
:103810000E941E0E18C080915E02A82AA0925E022D
:10382000F4CF802F0E944409AA2069F0A094005E82
:10383000083010F0811028C080915F02A822A09269
:103840005F020E947E052B2D2850330B243031055A
:1038500010F40E94C106CC2009F4A9CC80915C022E
:1038600080FDA5CCF70112828595859585950E94EE
:103870009608C7010E94B61880915C0285958595CF
:1038800085950E945B0893CC80915E02A822A0924D
:103890005E02D7CF312F3F70932E107F103219F078
:1038A000929480EF9822882071F041E0841661F1B3
:1038B000DD20B9F1AA2071F1F701858180FFA7CF42
:1038C0008F70858327C0DD2091F090916002892D53
:1038D000892BA11003C00E948B06B5CF51E0A51221
:1038E000FACF981709F4AFCF80936002ACCFA11044
:1038F00006C00E947805892D0E948006A4CF81E031
:10390000A81609F4A0CFF5CFDD2031F095E09A1587
:1039100008F499CF892DDFCFE4E0EA1508F493CFBE
:10392000EACFAA2041F3F9E38F1209C02FEF37EE57
:1039300043E0215030404040E1F700C00000802FBC
:103940000E94440980CF812F86958695837061F00F
:10395000813009F078CFC8019370D11002C090E097
:1039600080E00E9495066FCFC8019370D11002C00D
:1039700090E080E00E94AB0666CF802FDD2039F01A
:103980000E94E3090E94F1070E94F1075CCF0E94A8
:10399000C108FACF812F837009F066C0D11053CFD0
:1039A000802F829586958770880F880F602F6F70A3
:1039B000462E512C712C612C082E04C0440C551C31
:1039C000661C771C0A94D2F740E050E0BA0104FF6D
:1039D0000FC04FE050E060E070E004C0440F551F9E
:1039E000661F771F8A95D2F7409550956095709520
:1039F000812F869586958370823019F1D8F40091D5
:103A00006102109162022091630230916402813060
:103A100069F04429552966297729CB01BA01602329
:103A20007123822393230E94B7080DCF402A512A85
:103A3000622A732ACB01BA0164297529862997293C
:103A4000F2CF442955296629772900916102109106
:103A500062022091630230916402CB01BA016027B7
:103A6000712782279327DFCF8695DD2011F0812FE4
:103A70008170882309F4E7CE802F82958695877020
:103A8000880F880F602F6F70462E512C712C612C7F
:103A9000082E04C0440C551C661C771C0A94D2F7EF
:103AA00040E050E0BA0104FF0FC04FE050E060E09A
:103AB00070E004C0440F551F661F771F8A95D2F728
:103AC0004095509560957095812F86958695837069
:103AD000823019F1D8F40091D5021091D6022091CC
:103AE000D7023091D802813069F0442955296629DE
:103AF0007729CB01BA0160237123822393230E948B
:103B00003508A1CE402A512A622A732ACB01BA0174
:103B10006429752986299729F2CF442955296629D0
:103B200077290091D5021091D6022091D7023091C9
:103B3000D802CB01BA016027712782279327DFCFF4
:103B40001F70DD2029F0812F0E949608802FC3CEA0
:103B5000802F0E948006812F0E945B0874CE802FE8
:103B600052EF851609F450C0581578F090EF891679
:103B700019F1E1EF8E1609F43FC0DD2009F467C0AA
:103B8000A11045CE812F8F713CC0F3EF8F1609F441
:103B900040C024EF8212F1CFDD2009F44DC01F7127
:103BA000812F0E94960858E0159FC0011124836060
:103BB00080935C02812F25C0DD20C9F034E03A15E6
:103BC00008F441CE1F7161E070E080E090E004C035
:103BD000660F771F881F991F1A95D2F70091D5029B
:103BE0001091D6022091D7023091D802A4CF45E09F
:103BF0004A1508F428CEE6CF812F8F71DD2009F415
:103C0000ABCF0E9496081FCE812F8F71DD20C9F3A4
:103C1000A3CF60E070E0CB01DD2009F470CF1F710D
:103C200061E070E080E090E004C0660F771F881FBD
:103C3000991F1A95D2F763CF81E00E947E0881E038
:103C40008A1508F000CE82E00E947E08FCCDAA20F2
:103C500059F0893309F073CE9FEFE7EEF3E091500E
:103C6000E040F040E1F769CE812F8F7175CF0031D0
:103C7000FFE51F0709F453CB01312FE5120709F4C3
:103C800058CB0D3B2CE5120709F47FCB08F055CB40
:103C90000B3B4CE5140709F470CB80E00C3B5CE572
:103CA000150709F46BCB033F2CE5120709F4BCCBD5
:103CB00008F05EC0083D4CE5140709F4B1CB093D9E
:103CC0005CE5150709F4BCCB073D8CE5180709F046
:103CD0005BC026E241EE61EEC7010E94F00EA2CA6F
:103CE00000313FE5130709F420CB01314FE51407FC
:103CF00009F421CB033F3CE5130709F495CB08F009
:103D00008CC0083D5CE5150709F48ACB093D8CE5BC
:103D1000180709F495CB073DECE51E07D1F20631F3
:103D20001C4509F005CD8091040281117ECC89E209
:103D30000E94C30575CC85E0DE01119601900D92BD
:103D40008A95E1F7F701228189819A81211145CA7B
:103D50000E942206182F49CA8272F801E25CFC45D3
:103D6000E431F10508F0DBCCE459F54D0C9416294B
:103D7000053FECE51E0709F45FCB08F459CB063F7D
:103D80002CE5120709F455C01092D40202302CE53C
:103D9000120708F433CC06313CE5130738F09801DC
:103DA0002A5F3C452930310508F028CC0E94A50A3D
:103DB00090936E0280936D0200314CE5140709F474
:103DC000ECCB08F07ACB08308CE5180709F4D7CB98
:103DD00008F04CCB0430ECE51E0709F4C8CB08F022
:103DE00032CB02302CE5120709F4BBCB80916D0277
:103DF000826003301C4509F4B7CB60916D021091CD
:103E00006E0284E090E00E94AF29612F81E290E091
:103E10000E94AF290E946C1505CA053FFCE51F07EB
:103E200009F40ACB08F404CB063F3CE5130709F07C
:103E300076CF27E245EE66EE4FCF1F93CF93DF9309
:103E400080910B02807FA9F480910802882389F079
:103E500080913D02D0910C026091060270910702A0
:103E6000A0910902B0910A02C62FC72316E0D81309
:103E700004C0DF91CF911F91089590E0109711F049
:103E8000CF3F19F401968770F2CF189F9001199FC8
:103E9000300D1124F901E35FFD4F41814713F2CF4B
:103EA00040814613EFCF42814111ECCF43815481D1
:103EB0004A1B5B0B483C510528F780910B028F7021
:103EC000806180930B02F901EE5EFD4F80818F705F
:103ED0008061808386E092E00E94B618DF91CF91E6
:103EE0001F910C947606AF92BF92CF92DF92EF9221
:103EF000FF920F931F93CF93DF93CDB7DEB76197F8
:103F00000FB6F894DEBF0FBECDBF8C0185E0F8017F
:103F1000DE011D9601900D928A95E1F7F8018081EE
:103F20009181E28026E0A22E22E0B22E6091090269
:103F300070910A026115710509F43EC130910602C3
:103F400040910702232F24232F3F09F435C1C3805A
:103F5000D480F0900802F601E61BF70BFF2009F46D
:103F6000FBC020910B02522F507FE83CF10508F076
:103F7000BBC0511178C0FE2C491321C038131FC09B
:103F8000E1101DC02F70206120930B02C5010E941B
:103F9000B61880910B02F80185838F2D61960FB6BC
:103FA000F894DEBF0FBECDBFDF91CF911F910F916F
:103FB000FF90EF90DF90CF90BF90AF900895CD2805
:103FC00029F0282F29232F3F09F014C120E0F22FD8
:103FD000F170DF2E20FF3DC020913D0240910C0288
:103FE00056E0241315C08D879E878D859E850E947F
:103FF000BB0C292F22952F702230F8F0243020F5A9
:104000009F70F9F0F8019581907FD9F4D12C1FC0F1
:1040100030E0529FF001539FF00D1124E35FFD4FFC
:104020006181961306C06081861303C06281E61227
:1040300010C02F5F3F4F2770D4CF9F7011F088239F
:1040400029F3805E883010F3C8010E94B618FD2C59
:10405000A4CFEE2009F4A1CF80910B028160809360
:104060000B02F12C9ACF491312C0381310C0E11083
:104070000EC0F8012583C8010E94B61886E0F80139
:10408000A6E0B2E001900D928A95E1F786CF8D8788
:104090009E878D859E850E94C50C882309F1EE20A0
:1040A000F9F080910B02803270F02091060230917D
:1040B000070238872F831986DB86CA868C87CE0154
:1040C00007960E94B61886E0F801A6E0B2E00190DB
:1040D0000D928A95E1F70E941D1FFF24F3945DCF96
:1040E000C8010E94B618F9CF51110AC086E092E0CB
:1040F0000E94B61886E0F50111928A95E9F7B1CFD2
:1041000049130FC038130DC0E1100BC0F80125830F
:10411000C8010E94B61886E0F50111928A95E9F768
:104120003CCF8D879E878D859E850E94C50C8823F8
:10413000B9F2EE20A9F280910B02803220F2209198
:104140000602309107023A8329831B82DD82CC82EA
:104150008E83CE010196B5CFE83CF105E0F6FE2C4A
:10416000EE2009F4BDCF491316C0381314C0809156
:104170000B0280FD83CF982F907F09F47FCFF80149
:104180008583903F09F477CF982F907F905F8F7051
:10419000892B858370CF8D879E878D859E850E9414
:1041A000C50C811190CF80910B02816080930B022E
:1041B000C8010E94B618F1CEEE2009F491CF8D8788
:1041C0009E878D859E850E94C50CF82E882309F454
:1041D00087CF86E0F801A6E0B2E001900D928A95C3
:1041E000E1F780910602909107020E94BB0C0E94A9
:1041F0001D1FD3CE21E02E25EACE1F93CF93DF9350
:10420000CDB7DEB767970FB6F894DEBF0FBECDBF50
:10421000342F4B8B252F5C8B6D8B7E8B8F8B8E89F8
:104220009F89611110925E021A8A198A3D872E8732
:104230006F87998B888B86E0FE013D96DE0117968D
:1042400001900D928A95E1F7CE0107960E94731FA7
:10425000882389F016E080913D0290910C02891329
:1042600049C067960FB6F894DEBF0FBECDBFDF9191
:10427000CF911F91089586E0FE013796DE011196D9
:1042800001900D928A95E1F78A859B85892B11F320
:104290008F81988589238F3FE9F220910C0230E0CD
:1042A000C90101968770992740913D024817190668
:1042B00071F40E946C1510920C0210923D0286E07F
:1042C000E6E0F2E0DF011D928A95E9F7C3CF96E0C0
:1042D000929FD001939FB00D1124A35FBD4FFE01AB
:1042E000319601900D929A95E1F780930C020E940D
:1042F0007606B0CF819FC0011124835F9D4F0E943D
:10430000731F882309F4ADCF80913D0290E00196A0
:104310008770992780933D029ECF1F920F920FB610
:104320000F9211242F933F934F935F936F937F933B
:104330008F939F93AF93BF93CF93DF93EF93FF93AD
:10434000D091E900DF708091EC00C82FC17080FD32
:10435000C0E81092E9008091F000877F8093F00020
:1043600078940E9481151092E9008091F000886095
:104370008093F000CD2BCF70C093E900FF91EF91B7
:10438000DF91CF91BF91AF919F918F917F916F916D
:104390005F914F913F912F910F900FBE0F901F9003
:1043A00018951F920F920FB60F9211242F933F93DF
:1043B0004F935F936F937F938F939F93AF93BF932D
:1043C000EF93FF938091E10082FF09C08091E200AA
:1043D00082FF05C08091E1008B7F8093E100809196
:1043E000DA0080FF24C08091D80080FF20C0809137
:1043F000DA008E7F8093DA008091D90080FF9BC025
:1044000080E189BD82E189BD09B400FEFDCF81E074
:104410008093C8028091A302811109C00E94CD033C
:104420000E9498048091E20084608093E200809171
:10443000E10080FF17C08091E20080FF13C08091EF
:10444000E2008E7F8093E2008091E20080618093A1
:10445000E2008091D80080628093D80019BC85E08A
:104460008093C8028091E10084FF29C08091E2001E
:1044700084FF25C080E189BD82E189BD89B5982F7F
:10448000917080FFFBCF8091D8008F7D8093D80002
:104490008091E1008F7E8093E1008091E2008F7E29
:1044A0008093E2008091E20081608093E20080913D
:1044B000C902882309F445C084E08093C802809132
:1044C000E10083FF27C08091E20083FF23C0809139
:1044D000E100877F8093E10082E08093C802109220
:1044E000C9028091E1008E7F8093E1008091E2001B
:1044F0008E7F8093E2008091E20080618093E200F1
:1045000042E060E080E00E9466048091F0008860F4
:104510008093F000FF91EF91BF91AF919F918F91A8
:104520007F916F915F914F913F912F910F900FBEAF
:104530000F901F90189519BC1092C8021092A302F8
:1045400076CF8091E30087FD93E09093C802B7CFC8
:10455000CDB7DEB7AA970FB6F894DEBF0FBECDBFBA
:1045600084B7877F84BF0FB6F894A89580916000C8
:10457000886180936000109260000FBE80E890E038
:104580000FB6F89480936100909361000FBE85B7D9
:10459000806885BF85B7806885BF88E595E0909382
:1045A0009901809398010E94CD030E949804809104
:1045B000E20084608093E20078948091C8028823AE
:1045C000A1F01091E9001F709091EC00892F81708B
:1045D00090FD80E8182B1092E9008091E80083FD9F
:1045E0000E9481151F701093E90082E084BD93E062
:1045F00095BD9AEF97BD80936E0080E90E944B0AAB
:1046000083E30E944B0A82E30E944B0A81E30E94EB
:104610004B0A0DE711E0E9E8EE2EE1E0FE2EF8018D
:1046200081918F010E944B0AE016F106C1F71092AA
:1046300066021092650210929802109297021092F0
:1046400068021092670210929A02109299021092D8
:104650006A021092690210929C0210929B021092C0
:104660006C0210926B0210929E0210929D020E94A8
:10467000B511FFEF26E741E0F15020404040E1F75F
:1046800000C000000E94B5118091970280FF17C002
:104690006FEF82E290E00E94AF296FEF83E290E03B
:1046A0000E94AF296FEF84E290E00E94AF296FEF84
:1046B0007FEF90E080E00E94CD290E94FA0D0E94D9
:1046C000C213811102C00E94CD13279A2F988AE04D
:1046D0008093800089E1809381008FEF9FEF90931A
:1046E0008700809386000E94371482E290E00E9447
:1046F0009B29813209F0DFC483E290E00E949B296C
:10470000873009F0D8C484E290E00E949B29883069
:1047100009F0D1C40E94C213811102C00E94CD13BE
:1047200082E090E00E949B29809386020E94A50A65
:1047300090936E0280936D0283E090E00E949B292B
:10474000682F70E090E080E00E94B7080E94371464
:1047500080916F02811133C00E94C213811104C085
:104760000E94CD130E945C1588E090E00E94A3296E
:1047700060939202709393028093940290939502B7
:104780006E7F71F40E945C1588E090E00E94A3297E
:104790006093920270939302809394029093950297
:1047A0000E944207109291028091920280FF04C001
:1047B00060E086950E94531881E080936F0282E149
:1047C00091E0909371028093700258E1E52EF12CF4
:1047D00060E4B62E7FE9C72E72E0D72E8091C80222
:1047E00000E112E1853009F4BCC10E94B5118823B3
:1047F00059F08FB7F89440919F025091A0026091B8
:10480000A1027091A2028FBFA7E9B2E0E7E8F2E04F
:1048100010E000E0702F8D919D912191319128172A
:10482000390709F4B0C12827392760E08824839428
:10483000912CA90148215921452B09F49EC169A356
:104840007AA39C012821392191E0232B09F490E0DF
:104850009BA30E946C058160782F9DA38CA349A126
:104860005AA16BA18DA10E94FD20000F111FF8011C
:10487000E957FD4F80819181882699269182808217
:10488000809191028823D1F180919002E09192026F
:10489000E695E81BE0937502823009F08BC1F0E0E9
:1048A000E059F94FE4910E2F10E0F1E98F2EF1E17C
:1048B0009F2E80917602882361F0109276020E94EA
:1048C0006C05909374028093730210927802109298
:1048D00077020E946C05E0917302F09174028E1BC6
:1048E0009F0B8F3F9F4750F4E00FF11FF09374022E
:1048F000E093730283E792E0F401099586E0EFE725
:10490000F2E0DE01119601900D928A95E1F7909008
:1049100081028090820210918302009184021092A1
:104920008102109282021092830210928402892DD9
:10493000882909F448C080917D0290917E020E94EE
:104940005D059C0190917C02992309F4DBC323331C
:104950003105C8F19F3F19F09F5F90937C02992029
:1049600059F00E94C3099FEF19140CF491E0899F3C
:10497000802D112480938102882059F00E94C30960
:104980009FEF18140CF491E0899F802D11248093DF
:104990008202309181023323B1F0209182022223DE
:1049A00091F045EB3403C0011124992309F46EC141
:1049B0009093810245EB240390011124332309F4E1
:1049C00069C130938202812F802B09F448C0809105
:1049D0007A0290917B020E945D059C019091790280
:1049E000992309F48AC325363105C8F19F3F19F090
:1049F0009F5F90937902112359F00E94A1099FEFC4
:104A000011160CF491E0899F802D1124809383026C
:104A1000002359F00E94A1099FEF10160CF491E0B9
:104A2000899F802D11248093840230918302332347
:104A3000B1F020918402222391F045EB3403C001B0
:104A40001124992309F42AC19093830245EB24038E
:104A500090011124332309F425C1309384028091FD
:104A6000810290918202892B90918302892B9091EF
:104A70008402892B11F00E94F10786E0FE01319635
:104A8000AFE7B2E001900D928A95E1F70E94C1066E
:104A900090918502891721F00E94C10680938502BA
:104AA0008091C802843009F099CE83E08093E900B8
:104AB0008091E80082FF92CE8091E80090E085FF2F
:104AC00006C00E94EC03882309F4F0C091E08091B5
:104AD000E8008B778093E800992309F47FCEE98181
:104AE000E150E33108F076C1F0E0E058F54D0C9468
:104AF00016298091C802843021F180E00E94CD0601
:104B0000109272020FB6F894A895E09260000FBE62
:104B1000B092600083B7817F846083BF83B7816078
:104B200083BF7894889583B78E7F83BF0FB6F89440
:104B3000A895809160008861809360001092600069
:104B40000FBE8091C702882361F00E94B511E7E98A
:104B5000F2E081919191892B09F097C2CE16DF0680
:104B6000C1F78091C802853009F4C3CF0E946C154B
:104B70000E9437140E94C10638CE6F5F880C991CC2
:104B80006C3009F056CE0F5F1F4F0430110509F04D
:104B900041CE8FEF8EA38FA318A60E946C05816073
:104BA000782F9AA789A74EA15FA168A58AA50E9420
:104BB000FD2066CE863059F4F0E0E359F94FE491D8
:104BC0000E2F10E0E5EA8E2EE1E19E2E72CE8930A6
:104BD00061F4E695F0E0E659F94FE4910E2F10E00C
:104BE00079E8872E7FE0972E64CE8F3061F4E695CA
:104BF000F0E0E959F94FE4910E2F10E063EB862EB7
:104C00006FE0962E56CE853159F4F0E0EC59F94F0D
:104C1000E4910E2F10E057E1852E50E1952E49CEFC
:104C200008E210E025E6822E20E1922E883109F478
:104C300040CE833249F4E2E6F6E00591149148E370
:104C4000842E41E1942E35CE04EF11E09EEE892EA4
:104C500090E1992E843209F42CCE853281F48E2F86
:104C600063E00E94E228E92FF0E0E15AF94FE49175
:104C70000E2F10E033E1832E33E1932E1ACE00ED98
:104C800017E087E5882E85E0982E13CE81E080938B
:104C9000810290CE81E08093820295CE81E0809364
:104CA0008302D4CE81E080938402D9CE00E210E06A
:104CB000CE0101964C018091E80085FD0AC08091EB
:104CC000E8008B778093E8000E94EC03882399F337
:104CD000FDCE8091F100F40181934F010150110943
:104CE00051F7F4CE1A8289E08B833FC08A818230EB
:104CF00009F4FAC18330A9F0813009F06BC02FB7F5
:104D0000F89460919F027091A0028091A10290910D
:104D1000A2022FBF0E941C296B837C838D839E83FC
:104D200024C080919702909198029827892798270C
:104D30009C838B838091990290919A02982789276E
:104D400098279E838D8380919B0290919C02982747
:104D50008927982798878F8380919D0290919E0242
:104D60009827892798279A8789878091C802843055
:104D700009F034CD1091E9001F709091EC00892F5B
:104D8000817090FD80E8182B82E08093E90080918B
:104D9000E80080FF0DC050E040E060E270E0CE012E
:104DA00001960E941D048091E8008E778093E800B0
:104DB0001F701093E90012CD8A81823059F46B8103
:104DC0007C818D819E810E941C2985E290E00E9459
:104DD000AF29CBCF8FEF8983C8CF4C816B818A817C
:104DE0000E94B30A9827892798279E838D83BDCF79
:104DF0002D813E813227232732274C816B818A8186
:104E00000E94FE0CB2CF0E94270DAFCF8A8189305D
:104E100061F48B81F3E08F9FC00111246FEF70E08C
:104E20000E94EE28862F0E9427078A818138C1F0D0
:104E300060F4803809F099CF20E04B8160919402B2
:104E4000809193020E94671490CF823859F1833881
:104E500009F08BCF20E0409195026C818B81F2CFDD
:104E600060E08B810E9453189B8180919202911186
:104E700011C08E7F80939202109291022FEF40E733
:104E800082E0215040408040E1F700C000000E94D5
:104E9000540F6BCF81608093920260E086950E94F0
:104EA000531863CF8B81809396025FCF8A818930BC
:104EB00059F08A30C1F0813821F1B8F4803809F016
:104EC00054CF8091950210CF80918F028695869560
:104ED0008695EFEF8E9FC001112463E070E00E9481
:104EE000EE286B8342CF1B8240CF823891F083380B
:104EF00009F03BCF809193028B83809194028C8345
:104F000034CF8091920280FF02C08695EDCE80E082
:104F1000EBCE80919602E8CE80918F020E94E90C40
:104F20006091920270919302809194029091950207
:104F30000E9455141ACF80E18A8317CF82E08A83BA
:104F40008AE5D2CE0C8110E00D31110508F00DCFAD
:104F50008A809B80982489249824CE0101963C0164
:104F6000080F191FC4018A559E4F6016710609F477
:104F7000FCCEFAE58F16F2E09F0658F40E949B29BA
:104F8000F3018483FFEF8F1A9F0A2FEF621A720AD0
:104F9000E9CFF3011482F6CF8C80912C4DE1841679
:104FA000910408F0E2CE0A811B8110270127102707
:104FB000CE0101963C01800E911EC8018A559E4F7C
:104FC0000815190509F4D1CE0A35E2E01E0720F4D0
:104FD000F30164810E94AF29FFEF6F1A7F0A0F5F10
:104FE0001F4FEBCF0E94EE0CC0CE84E0A5CF0C810A
:104FF00010E00D31110508F0B8CE8A809B8098240E
:1050000089249824CE0101963C01080F191FC40180
:1050100086966016710609F4A8CEF0E88F16F1E0C6
:105020009F0658F40E949B29F3018483FFEF8F1A97
:105030009F0A2FEF621A720AEACFF3011482F6CFA9
:105040008C80912C4DE18416910408F08ECE0A815B
:105050001B81102701271027CE0101963C01800EED
:10506000911EC80186968016910609F47ECE0038FE
:10507000E1E01E0720F4F30164810E94AF29FFEFF5
:105080006F1A7F0A0F5F1F4FECCF09BD19BD09B41E
:1050900000FEFDCF8091D8008F7D8093D800809155
:1050A000E00082608093E0008091E00081FDFCCF11
:1050B0000E946C1556CD60E085E290E00E94AF2919
:1050C0000E94270D0E94EE0C61E282E290E00E94B5
:1050D000AF2967E083E290E00E94AF2968E084E2B4
:1050E00090E00E94AF2916CB85E290E00E949B29B8
:1050F0001B821C821D828E8338CE2D32314008F0F7
:1051000077CCADCC2D32314008F026CC5CCC7894F5
:105110001F921FB61F9211248F939F93AF93BF933B
:1051200080919F029091A002A091A102B091A20251
:105130000196A11DB11D80939F029093A002A093A0
:10514000A102B093A202BF91AF919F918F911F9046
:105150001FBE1F9018951F921FB61F9211248F9388
:105160009F93AF93BF9380917202811113C080917E
:105170009F029091A002A091A102B091A20241963B
:10518000A11DB11D80939F029093A002A093A10244
:10519000B093A202BF91AF919F918F911F901FBEBC
:1051A0001F901895DB018F939F930E94022ABF9155
:1051B000AF91A29F800D911DA39F900DB29F900D66
:1051C00011240895991B79E004C0991F961708F0DF
:1051D000961B881F7A95C9F780950895AA1BBB1B5B
:1051E00051E107C0AA1FBB1FA617B70710F0A61BE7
:1051F000B70B881F991F5A95A9F780959095BC0108
:10520000CD01089597FB072E16F4009407D077FD83
:1052100009D00E94EE2807FC05D03EF490958195B8
:105220009F4F0895709561957F4F0895EE0FFF1F72
:105230000590F491E02D099469279627692778272E
:105240008727782708950E94372A332312F48A1B70
:105250009B0B0C942D290E94372AB7FF0895821BBF
:10526000930B08958F929F92AF92BF92CF92DF924D
:10527000EF92FF92CF93DF93EC01688179818A816D
:105280009B81611571058105910521F464E279ED39
:105290008BE597E02DE133EF41E050E00E94E329F8
:1052A00049015A019B01AC01A7EAB1E40E94022A1C
:1052B0006B017C01ACEEB4EFA50194010E94102AB1
:1052C000DC01CB018C0D9D1DAE1DBF1DB7FF03C0C2
:1052D0000197A109B04888839983AA83BB839F77EC
:1052E000DF91CF91FF90EF90DF90CF90BF90AF9084
:1052F0009F908F9008950E943229089580E091E058
:105300000E9432290895B0E0A0E0809300019093BC
:105310000101A0930201B09303010895FC014150E3
:10532000504030F001900616D1F73197CF01089523
:10533000882799270895F999FECF92BD81BDF89AE3
:10534000992780B50895A6E1B0E044E050E00C94C0
:10535000D529A8E1B0E042E050E00C94D529262FF1
:10536000F999FECF92BD81BDF89A019700B402165B
:1053700039F01FBA20BD0FB6F894FA9AF99A0FBE09
:1053800008950396272F0E94B0290E94AF29252F48
:105390000E94B029242F0C94B0290196272F0E9437
:1053A000B0290C94AF29DC01CB01FC01F999FECFA7
:1053B00006C0F2BDE1BDF89A319600B40D9241509D
:1053C0005040B8F70895052E97FB1EF400940E94F4
:1053D000FA2957FD07D00E94152A07FC03D04EF486
:1053E0000C94FA2950954095309521953F4F4F4F99
:1053F0005F4F089590958095709561957F4F8F4F81
:105400009F4F08950E94372AA59F900DB49F900D3D
:10541000A49F800D911D11240895B7FF0C94022ABA
:105420000E94022A821B930B0895A1E21A2EAA1B46
:10543000BB1BFD010DC0AA1FBB1FEE1FFF1FA21744
:10544000B307E407F50720F0A21BB30BE40BF50B41
:10545000661F771F881F991F1A9469F760957095CA
:10546000809590959B01AC01BD01CF010895A29F4D
:10547000B001B39FC001A39F700D811D1124911D28
:10548000B29F700D811D1124911D0895F894FFCFD6
:10549000D40CD40CDD0CDD0CDF0CDD0CDD0CDD0CD4
:1054A000D40CD40CE40CDD0CDD0CE40C66168E166A
:1054B000E1168E16E116C116F916E11601180E183E
:1054C000EE1BEE1B4A1C4A1CA31CBD1C231C231CE8
:1054D000CA1CA01DAF1DAF1D171B3E1B451B4A1B41
:1054E0004F1B541B591B5E1B631B681B6D1B721BE0
:1054F000751B7A1B7D1B801B831B861B891B8C1BCA
:1055000072267626DC26ED26F82603270627562760
:105510008C27EA26EA269B279E27A227CC27F2275C
:06552000F527F727202803
:105526000100000001191A1B1C1D1E1F202122014B
:1055360002015A05BA0D990D950D910D0100010252
:105546000202020606060909090909090F0F0F0FCB
:105556000F0F1515151819191919191919191919D6
:105566002324252525252525818283E200E900EAD5
:1055760000B500B600B700CD008301CC008A0192C9
:105586000194012102230224022502260227022A6F
:1055960002B300B4006F00700090333231F1F03086
:1055A60067F4F5F6F7949634974022BC8A016801B1
:0855B600AC0086069F06BF064B
:00000001FF
